{
  "transactions": [
    {
      "hash": "0x42e8b3294a3fd8e2e52b9e36c975b52e796a24489684877a5a7d2132480be9e3",
      "transactionType": "CALL",
      "contractName": null,
      "contractAddress": "0x2fa8846afdb0ae2e1a63548b20a82af087bc136d",
      "function": "addSource(uint64,address)",
      "arguments": [
        "16015286601757825753",
        "0xE7fa3Ef3674a5097240641C9968976E9985c9dDf"
      ],
      "transaction": {
        "from": "0x114c69ba39b7db730504b61fb8861cb9b25c5540",
        "to": "0x2fa8846afdb0ae2e1a63548b20a82af087bc136d",
        "gas": "0x1117e",
        "value": "0x0",
        "input": "0x39a0e548000000000000000000000000000000000000000000000000de41ba4fc9d91ad9000000000000000000000000e7fa3ef3674a5097240641c9968976e9985c9ddf",
        "nonce": "0x3a4",
        "chainId": "0xaa36a7"
      },
      "additionalContracts": [],
      "isFixedGasLimit": false
    },
    {
      "hash": "0x82f40e82b42ef9406e10de42632db35d2f68560551839720b9f0f32d49472103",
      "transactionType": "CALL",
      "contractName": null,
      "contractAddress": "0x2fa8846afdb0ae2e1a63548b20a82af087bc136d",
      "function": "setUniswapRouter(address)",
      "arguments": [
        "0xeE567Fe1712Faf6149d80dA1E6934E354124CfE3"
      ],
      "transaction": {
        "from": "0x114c69ba39b7db730504b61fb8861cb9b25c5540",
        "to": "0x2fa8846afdb0ae2e1a63548b20a82af087bc136d",
        "gas": "0xf950",
        "value": "0x0",
        "input": "0xbea9849e000000000000000000000000ee567fe1712faf6149d80da1e6934e354124cfe3",
        "nonce": "0x3a5",
        "chainId": "0xaa36a7"
      },
      "additionalContracts": [],
      "isFixedGasLimit": false
    }
  ],
  "receipts": [
    {
      "status": "0x1",
      "cumulativeGasUsed": "0x1780ac1",
      "logs": [
        {
          "address": "0x2fa8846afdb0ae2e1a63548b20a82af087bc136d",
          "topics": [
            "0x81cb42a9f70567fb825ec9e1671a4e7934e6efcf77099d7a018afd8868a7165d",
            "0x000000000000000000000000000000000000000000000000de41ba4fc9d91ad9",
            "0x000000000000000000000000e7fa3ef3674a5097240641c9968976e9985c9ddf"
          ],
          "data": "0x",
          "blockHash": "0x704dbae5cb5a51cd4231142a48a19f4c28a8e250ac67857c811518a3fda3fa23",
          "blockNumber": "0x93015b",
          "blockTimestamp": "0x69184470",
          "transactionHash": "0x42e8b3294a3fd8e2e52b9e36c975b52e796a24489684877a5a7d2132480be9e3",
          "transactionIndex": "0x83",
          "logIndex": "0x11f",
          "removed": false
        }
      ],
      "logsBloom": "0x00000000002000000000000000000000000000000000000000000000000000000000000000004000000001001000000000000000000000000000000000000000000000000000000800000000000000000000000000000000000000000000000000000000000000000040000000010000000000000000400000000000000000000000200000000000000000000000000000000020000000000000000000000000000000000000000000000000000000400000000000000000000000000000000000000000000000000000000000000010000000000000000000000000000000000000000000000000000000000000000000000000000000000000000000000000",
      "type": "0x2",
      "transactionHash": "0x42e8b3294a3fd8e2e52b9e36c975b52e796a24489684877a5a7d2132480be9e3",
      "transactionIndex": "0x83",
      "blockHash": "0x704dbae5cb5a51cd4231142a48a19f4c28a8e250ac67857c811518a3fda3fa23",
      "blockNumber": "0x93015b",
      "gasUsed": "0xbb01",
      "effectiveGasPrice": "0xf4249",
      "from": "0x114c69ba39b7db730504b61fb8861cb9b25c5540",
      "to": "0x2fa8846afdb0ae2e1a63548b20a82af087bc136d",
      "contractAddress": null
    },
    {
      "status": "0x1",
      "cumulativeGasUsed": "0x178bf41",
      "logs": [],
      "logsBloom": "0x00000000000000000000000000000000000000000000000000000000000000000000000000000000000000000000000000000000000000000000000000000000000000000000000000000000000000000000000000000000000000000000000000000000000000000000000000000000000000000000000000000000000000000000000000000000000000000000000000000000000000000000000000000000000000000000000000000000000000000000000000000000000000000000000000000000000000000000000000000000000000000000000000000000000000000000000000000000000000000000000000000000000000000000000000000000",
      "type": "0x2",
      "transactionHash": "0x82f40e82b42ef9406e10de42632db35d2f68560551839720b9f0f32d49472103",
      "transactionIndex": "0x84",
      "blockHash": "0x704dbae5cb5a51cd4231142a48a19f4c28a8e250ac67857c811518a3fda3fa23",
      "blockNumber": "0x93015b",
      "gasUsed": "0xb480",
      "effectiveGasPrice": "0xf4249",
      "from": "0x114c69ba39b7db730504b61fb8861cb9b25c5540",
      "to": "0x2fa8846afdb0ae2e1a63548b20a82af087bc136d",
      "contractAddress": null
    }
  ],
  "libraries": [],
  "pending": [],
  "returns": {},
  "timestamp": 1763198066162,
  "chain": 11155111,
  "commit": "b03fd83"
}