{
  "transactions": [
    {
      "hash": "0x2be87758e6af228d05a584ca4530120d669b9314af2420b14427c903315c228d",
      "transactionType": "CALL",
      "contractName": null,
      "contractAddress": "0xe7fa3ef3674a5097240641c9968976e9985c9ddf",
      "function": "setUniswapRouter(address)",
      "arguments": [
        "0xfB8e1C3b833f9E67a71C859a132cf783b645e436"
      ],
      "transaction": {
        "from": "0x114c69ba39b7db730504b61fb8861cb9b25c5540",
        "to": "0xe7fa3ef3674a5097240641c9968976e9985c9ddf",
        "gas": "0x108a0",
        "value": "0x0",
        "input": "0xbea9849e000000000000000000000000fb8e1c3b833f9e67a71c859a132cf783b645e436",
        "nonce": "0x22",
        "chainId": "0x279f"
      },
      "additionalContracts": [],
      "isFixedGasLimit": false
    }
  ],
  "receipts": [
    {
      "status": "0x1",
      "cumulativeGasUsed": "0xa27f5d",
      "logs": [],
      "logsBloom": "0x00000000000000000000000000000000000000000000000000000000000000000000000000000000000000000000000000000000000000000000000000000000000000000000000000000000000000000000000000000000000000000000000000000000000000000000000000000000000000000000000000000000000000000000000000000000000000000000000000000000000000000000000000000000000000000000000000000000000000000000000000000000000000000000000000000000000000000000000000000000000000000000000000000000000000000000000000000000000000000000000000000000000000000000000000000000",
      "type": "0x2",
      "transactionHash": "0x2be87758e6af228d05a584ca4530120d669b9314af2420b14427c903315c228d",
      "transactionIndex": "0x1f5",
      "blockHash": "0xf3301a5a46e41ff6fe452ab44144ec2ed80a0804a15a8cf967df35c673377dc3",
      "blockNumber": "0x2f48721",
      "gasUsed": "0x108a0",
      "effectiveGasPrice": "0x174876e801",
      "from": "0x114c69ba39b7db730504b61fb8861cb9b25c5540",
      "to": "0xe7fa3ef3674a5097240641c9968976e9985c9ddf",
      "contractAddress": null
    }
  ],
  "libraries": [],
  "pending": [],
  "returns": {},
  "timestamp": 1763197981932,
  "chain": 10143,
  "commit": "b03fd83"
}