{
  "transactions": [
    {
      "hash": "0x442dfad028804aeebb2709ac9b67c5cb3024ca4e9d5a4719b0d26de9b318b702",
      "transactionType": "CALL",
      "contractName": null,
      "contractAddress": "0xe7fa3ef3674a5097240641c9968976e9985c9ddf",
      "function": "setHelper(address)",
      "arguments": [
        "0x2fa8846aFDb0AE2E1A63548B20a82af087BC136d"
      ],
      "transaction": {
        "from": "0x114c69ba39b7db730504b61fb8861cb9b25c5540",
        "to": "0xe7fa3ef3674a5097240641c9968976e9985c9ddf",
        "gas": "0x10ec1",
        "value": "0x0",
        "input": "0x986ccc7f0000000000000000000000002fa8846afdb0ae2e1a63548b20a82af087bc136d",
        "nonce": "0x23",
        "chainId": "0x279f"
      },
      "additionalContracts": [],
      "isFixedGasLimit": false
    }
  ],
  "receipts": [
    {
      "status": "0x1",
      "cumulativeGasUsed": "0xc1118c",
      "logs": [
        {
          "address": "0xe7fa3ef3674a5097240641c9968976e9985c9ddf",
          "topics": [
            "0x20e752df2d1d9e69c7eb8f9e96973ff9b6f881a03503a3b5cac668cafb9a1ac8",
            "0x0000000000000000000000002fa8846afdb0ae2e1a63548b20a82af087bc136d"
          ],
          "data": "0x",
          "blockHash": "0x961dc9d9b2130e342a6529bedf199aa64104935387c435342188762187cbc8b3",
          "blockNumber": "0x2f48756",
          "blockTimestamp": "0x69184431",
          "transactionHash": "0x442dfad028804aeebb2709ac9b67c5cb3024ca4e9d5a4719b0d26de9b318b702",
          "transactionIndex": "0x1f8",
          "logIndex": "0xb",
          "removed": false
        }
      ],
      "logsBloom": "0x80000000008000000000000000000000000000000000000000000000000000000000800000000000000000000000000000000000000000000000000000000000000000000000000040000000000000000000000000000000000000000000000000000000000000000000000000020000000000000000000000000000000000000000000000000000000000000000000000000000000000000000000000000000000010000000000000000000000000000001080000000000000000200000000000000000000000000000000000000000000000000000000000000000000000000000000000000000000000000000000000000000000000000000000000000000",
      "type": "0x2",
      "transactionHash": "0x442dfad028804aeebb2709ac9b67c5cb3024ca4e9d5a4719b0d26de9b318b702",
      "transactionIndex": "0x1f8",
      "blockHash": "0x961dc9d9b2130e342a6529bedf199aa64104935387c435342188762187cbc8b3",
      "blockNumber": "0x2f48756",
      "gasUsed": "0x10ec1",
      "effectiveGasPrice": "0x174876e801",
      "from": "0x114c69ba39b7db730504b61fb8861cb9b25c5540",
      "to": "0xe7fa3ef3674a5097240641c9968976e9985c9ddf",
      "contractAddress": null
    }
  ],
  "libraries": [],
  "pending": [],
  "returns": {},
  "timestamp": 1763198003528,
  "chain": 10143,
  "commit": "b03fd83"
}